:020000040000fa
:080000000002040000000000f2
:020000040000fa
:040008007a03000077
:020000040000fa
:04000c007a03000073
:020000040000fa
:040010007a0300006f
:020000040000fa
:040014007a0300006b
:020000040000fa
:040018007a03000067
:020000040000fa
:04001c007a03000063
:020000040000fa
:040020007a0300005f
:020000040000fa
:040024007a0300005b
:020000040000fa
:040028007a03000057
:020000040000fa
:04002c007a03000053
:020000040000fa
:040030007a0300004f
:020000040000fa
:04003400c8020000fe
:020000040000fa
:040038007a03000047
:020000040000fa
:04003c007a03000043
:020000040000fa
:040040007a0300003f
:020000040000fa
:040044007a0300003b
:020000040000fa
:040048007a03000037
:020000040000fa
:04004c007a03000033
:020000040000fa
:040050007a0300002f
:020000040000fa
:04005400580300004d
:020000040000fa
:040058002e03000073
:020000040000fa
:04005c007a03000023
:020000040000fa
:040060007a0300001f
:020000040000fa
:040064007a0300001b
:020000040000fa
:040068007a03000017
:020000040000fa
:04006c007a03000013
:020000040000fa
:040070007a0300000f
:020000040000fa
:040074007a0300000b
:020000040000fa
:040078007a03000007
:020000040000fa
:04007c007a03000003
:020000040000fa
:040080007a030000ff
:020000040000fa
:040084007a030000fb
:020000040000fa
:040088007a030000f7
:020000040000fa
:04008c007a030000f3
:020000040000fa
:040090007a030000ef
:020000040000fa
:040094007a030000eb
:020000040000fa
:040098007a030000e7
:020000040000fa
:04009c007a030000e3
:020000040000fa
:0400a0007a030000df
:020000040000fa
:0400a4007a030000db
:020000040000fa
:0400a8007a030000d7
:020000040000fa
:0400ac007a030000d3
:020000040000fa
:0400b0007a030000cf
:020000040000fa
:0400b4007a030000cb
:020000040000fa
:0400b8007a030000c7
:020000040000fa
:0400bc007a030000c3
:020000040000fa
:0400c0007a030000bf
:020000040000fa
:0400c4007a030000bb
:020000040000fa
:0400c8007a030000b7
:020000040000fa
:0400cc007a030000b3
:020000040000fa
:0400d0007a030000af
:020000040000fa
:0400d4007a030000ab
:020000040000fa
:0400d8007a030000a7
:020000040000fa
:0400dc007a030000a3
:020000040000fa
:0400e0007a0300009f
:020000040000fa
:0400e4007a0300009b
:020000040000fa
:0400e8007a03000097
:020000040000fa
:0400ec007a03000093
:020000040000fa
:0400f0007a0300008f
:020000040000fa
:0400f4007a0300008b
:020000040000fa
:0400f8007a03000087
:020000040000fa
:0400fc007a03000083
:020000040000fa
:040100007a0300007e
:020000040000fa
:040104007a0300007a
:020000040000fa
:040108007a03000076
:020000040000fa
:04010c007a03000072
:020000040000fa
:040110007a0300006e
:020000040000fa
:040114007a0300006a
:020000040000fa
:040118007a03000066
:020000040000fa
:04011c007a03000062
:020000040000fa
:040120007a0300005e
:020000040000fa
:040124007a0300005a
:020000040000fa
:040128007a03000056
:020000040000fa
:04012c007a03000052
:020000040000fa
:040130007a0300004e
:020000040000fa
:040134007a0300004a
:020000040000fa
:040138007a03000046
:020000040000fa
:04013c007a03000042
:020000040000fa
:040140007a0300003e
:020000040000fa
:040144007a0300003a
:020000040000fa
:040148007a03000036
:020000040000fa
:04014c007a03000032
:020000040000fa
:040150007a0300002e
:020000040000fa
:040208007a03000075
:020000040000fa
:04020c007a03000071
:020000040000fa
:040210007a0300006d
:020000040000fa
:040214007a03000069
:020000040000fa
:040218007a03000065
:020000040000fa
:04021c007a03000061
:020000040000fa
:040220007a0300005d
:020000040000fa
:040224007a03000059
:020000040000fa
:040228007a03000055
:020000040000fa
:04022c007a03000051
:020000040000fa
:040230007a0300004d
:020000040000fa
:040234007a03000049
:020000040000fa
:040238007a03000045
:020000040000fa
:04023c007a03000041
:020000040000fa
:040240007a0300003d
:020000040000fa
:040244007a03000039
:020000040000fa
:040248007a03000035
:020000040000fa
:04024c007a03000031
:020000040000fa
:040250007a0300002d
:020000040000fa
:040254007a03000029
:020000040000fa
:040258007a03000025
:020000040000fa
:04025c007a03000021
:020000040000fa
:040260007a0300001d
:020000040000fa
:040264007a03000019
:020000040000fa
:040268007a03000015
:020000040000fa
:04026c007a03000011
:020000040000fa
:040270007a0300000d
:020000040000fa
:040274007a03000009
:020000040000fa
:040278007a03000005
:020000040000fa
:04027c007a03000001
:020000040000fa
:040280007a030000fd
:020000040000fa
:040284007a030000f9
:020000040000fa
:040288007a030000f5
:020000040000fa
:04028c007a030000f1
:020000040000fa
:040290007a030000ed
:020000040000fa
:040294007a030000e9
:020000040000fa
:040298007a030000e5
:020000040000fa
:04029c007a030000e1
:020000040000fa
:0402a0007a030000dd
:020000040000fa
:0402a4007a030000d9
:020000040000fa
:0402a8007a030000d5
:020000040000fa
:0402ac007a030000d1
:020000040000fa
:0402b0007a030000cd
:020000040000fa
:0402b4007a030000c9
:020000040000fa
:0402b8007a030000c5
:020000040000fa
:0402bc007a030000c1
:020000040000fa
:0402c0007a030000bd
:020000040000fa
:0402c4007a030000b9
:020000040000fa
:0402c8007a030000b5
:020000040000fa
:0402cc007a030000b1
:020000040000fa
:0402d0007a030000ad
:020000040000fa
:0402d4007a030000a9
:020000040000fa
:0402d8007a030000a5
:020000040000fa
:0402dc007a030000a1
:020000040000fa
:0402e0007a0300009d
:020000040000fa
:0402e4007a03000099
:020000040000fa
:0402e8007a03000095
:020000040000fa
:0402ec007a03000091
:020000040000fa
:0402f0007a0300008d
:020000040000fa
:0402f4007a03000089
:020000040000fa
:0402f8007a03000085
:020000040000fa
:0402fc007a03000081
:020000040000fa
:040300007a0300007c
:020000040000fa
:040304007a03000078
:020000040000fa
:040308007a03000074
:020000040000fa
:04030c007a03000070
:020000040000fa
:040310007a0300006c
:020000040000fa
:040314007a03000068
:020000040000fa
:040318007a03000064
:020000040000fa
:04031c007a03000060
:020000040000fa
:040320007a0300005c
:020000040000fa
:040324007a03000058
:020000040000fa
:040328007a03000054
:020000040000fa
:04032c007a03000050
:020000040000fa
:040330007a0300004c
:020000040000fa
:040334007a03000048
:020000040000fa
:040338007a03000044
:020000040000fa
:04033c007a03000040
:020000040000fa
:040340007a0300003c
:020000040000fa
:040344007a03000038
:020000040000fa
:040348007a03000034
:020000040000fa
:04034c007a03000030
:020000040000fa
:040350007a0300002c
:020000040000fa
:100400008f9a20000eff20000e01880000000000df
:10041000000020000000e000020032000001200087
:100420002002880014000700b40007000000e0006c
:1004300003003a00c07b20000100200002003700ca
:100440000000200001002000810f70000100320038
:1004500014000700000020000000e000020032004d
:100460000000020000000000f00502000000000093
:100470000040da000000fe004440a9000000200017
:100480000000e0000300320000002000a00188000e
:100490004440a800000006008a1f78008b1f7800e7
:1004a0000000060091018800800478000000eb0045
:1004b0001a003700e284440032a0b4009905ba0063
:1004c000e284440032a0b4009906ba00e2844400f9
:1004d00032a0b4000006eb00476fde00fd07b2005b
:1004e000636ce10003003a00ebff07000000eb0043
:1004f0000a003700606ce10004003a00005deb0088
:100500008b05e900fdff3e00040037006168e10053
:10051000010032000086eb000b00070019c7ba008b
:100520001905ba000e04e00003003a000a00e000da
:10053000e0ff3a0000000600fe07b2009e018800be
:100540008a047800f5ff3700395dba008b05e900b1
:100550000c003200295dba008b05e900080032006a
:100560000c00e00003003a00e284440032a0b40032
:10057000f5ff370019ddba008b05e900faff3a00f4
:100580008904e800e184440032a0b40000000600c1
:10059000809fbe000200fa002104800070ff2f003f
:1005a0000080600020048800204d80000000e800ea
:1005b000204d8800214d8000f0092000808f5000e0
:1005c00001003400a429ef00304d80000000e80055
:1005d000304d88000000eb00000f78001700370056
:1005e000819920001e00780000004000008040003b
:1005f00090007800204d8000808f5000070034006c
:10060000010021001e0078008008dd00104d8000f0
:1006100001007000104d8800070037000100210024
:100620001e0078000008dd008080ea00104d800088
:1006300000806000104d88001e0fe8001e0078004a
:10064000e30f5000e6ff3400104d80005016880084
:100650000080fa004f00be00004006003600f8009f
:10066000809fbe00829fbe00849fbe00869fbe000a
:100670000000fa008580a900914c8000804c800029
:10068000808f500003003200140107000080fb003f
:10069000201188000080fa004f03be004f02be0008
:1006a0004f01be004f00be003600f90000400600ba
:1006b0003600f800809fbe00829fbe00849fbe006f
:1006c000869fbe000000fa008560a90030118000fe
:1006d00000407800120107000080fa004f03be00be
:1006e0004f02be004f01be004f00be003600f900b1
:1006f000004006000040da000000fe000000050097
:020000040000fa
:100700000000fa000021ef00803821001008880066
:1007100000002800200888002104800070ff2f00be
:100720000080600020048800a00480000030a00049
:10073000a00488002105800000002700010070004f
:10074000200588000080fa00000006000600fa007c
:1007500010079800210798001e009000e10f50003c
:1007600003003a00e0002000000f78001f0037006f
:100770001e009000e20f500003003a00b00020007d
:10078000000f7800190037001e009000e30f5000a2
:100790000a003a00ae00900000f42100808f500063
:1007a00003003c00b0002000000f78000f0037006d
:1007b00040012000000f78000c0037001e00900060
:1007c000e40f500009003a00ae00900000f4210050
:1007d000808f500003003c0040012000000f780093
:1007e00002003700e0002000000f78001e007800b3
:1007f0000080fa00000006000600fa0010079800ca
:10080000210798001e009000e10f500003003a00fd
:1008100040012000000f78001f0037001e009000ec
:10082000e20f50000a003a00ae00900000f42100f0
:10083000808f500003003c0040012000000f780032
:100840001500370020012000000f7800120037004b
:100850001e009000e30f50000a003a00ae00900026
:1008600000e82300808f500003003c00400120007e
:10087000000f78000800370020012000000f7800ea
:10088000050037001e009000e40f500002003a00ff
:1008900040012000000f78001e0078000080fa0060
:1008a000000006000600fa001007980021079800d3
:1008b0001e009000e10f500003003a0040012000ac
:1008c000000f78001f0037001e009000e20f50005c
:1008d0000a003a00ae00900000f42100808f500022
:1008e00003003c0040012000000f78001500370095
:1008f00000012000000f7800120037001e00900059
:10090000e30f50000a003a00ae00900000e8230018
:10091000808f500003003c0040012000000f780051
:100920000800370000012000000f780005003700a4
:100930001e009000e40f500002003a004001200029
:10094000000f78001e0078000080fa00000006000a
:100950000600fa0010079800210798001e0090007a
:10096000e10f500003003a0080002000000f7800e3
:100970001f0037001e009000e20f50000a003a00ee
:10098000ae00900000e82300808f500003003c0080
:1009900080002000000f7800150037004000200084
:1009a000000f7800120037001e009000e30f500087
:1009b0000a003a00ae00900000dc2500808f500055
:1009c00003003c0040002000000f780008003700c2
:1009d00080002000000f7800050037001e00900006
:1009e000e40f500002003a0080002000000f780061
:1009f0001e0078000080fa00000006000000fa00e7
:100a0000401680000050a00040168800411680006b
:100a1000f0fe2f000080600040168800f0032000e8
:100a2000401188002002a9000111800090ff2f00d2
:100a3000008060000011880020a2a90021e2a80027
:100a400023e2a80011118000f0f32f000080600065
:100a5000101188002342a8005105800080ff2f005c
:100a6000008060000020a000500588004105800043
:100a7000f0ff28000080600000e0a0004005880032
:100a80008580a9008560a9009580a8009560a800d0
:100a90000080fa00000006000200fa00004f780013
:100aa000824c80009e4078000080200000004100c1
:100ab00001487800804c80000000e800804c8800ed
:100ac000814c8000800c2000808f500001003a0093
:100ad0009029ef000080fa00000006000200fa00f2
:100ae000914c800000802000008040001040780081
:100af000004f7800904c80000000e800904c880087
:100b0000914c8000800c2000808f500001003a0042
:100b10009229ef001e4078000080fa0000000600d5
:100b20000200fa00004f7800a24c80009e4078003e
:100b3000808c20000000410001487800a04c80001b
:100b40000000e800a04c8800a14c8000800c200030
:100b5000808f500001003a009429ef000080fa00d5
:100b6000000006000200fa00b14c8000808c2000da
:100b70000080400010407800004f7800b04c8000aa
:100b80000000e800b04c8800b14c8000800c2000d0
:100b9000808f500001003a009629ef001e40780037
:100ba0000080fa00000006000000fa008580a8001e
:100bb0000080fa00000006000000fa00b14c80003e
:100bc000a04c80000080680000f0a7000000ea0050
:100bd0000000ea004f00de000080fa00000006007e
:100be0000200fa006f00070098000700411680001d
:100bf000f0f320000080600040168800f0f3200031
:100c0000501688007dff0700bdfe0700f00320009e
:100c1000ad0007000000eb00000f7800004d8000e1
:100c2000004078009cff0700dfff0700004d8000b8
:100c3000e10f500011003a0040002000bf00070003
:100c4000000f78001e0078004680de00e70f50009d
:100c50000a003c0020002000004d8800104d80005c
:100c60000060a000104d8800a629ef00004d800014
:100c70000040780088ff0700cbff0700004d800090
:100c8000e20f50000f003a00314d8000f0db2500ec
:100c9000808f50000b00340030002000004d880091
:100ca000114d8000f0fb2f0000806000104d880087
:100cb000a629ef00004d80000040780076ff070075
:100cc000b9ff0700004d8000e30f50000e003a000e
:100cd000314d8000f0cf2700808f50000a00340093
:100ce00040002000004d8800104d80000070a000e2
:100cf000104d8800a629ef00004d800000407800cc
:100d000065ff0700a8ff0700004d8000e40f5000ba
:100d10000f003a00314d8000f0e72300808f500033
:100d20000b00340010002000004d8800114d8000a1
:100d3000f0f72f0000806000104d8800a629ef001a
:100d4000004d80000040780053ff070096ff070029
:100d5000314d8000004d80007cfe0700819920000d
:100d600080087800314d8000004d8000a2fe070011
:100d70008199200090009800314d8000004d800046
:100d8000c8fe070081992000a0009800314d800026
:100d9000004d8000eefe070081992000b000980011
:100da000a2ff37000000fa00213a800000fe2f0069
:100db00000806000203a880090022000303a8800cd
:100dc000213a8000f0f32f0000806000203a880074
:100dd0001200200080072000a109200033742000a9
:100de000804978008149780082497800103a800073
:100df000000178000200a0006004200071052000be
:100e00002374200080497800814978008249780065
:100e100000000000113a8000000027008080600080
:100e200000002100808f5000faff3a00000000000f
:100e3000113a800000022000008060000000e00005
:100e4000fbff32000080fa00000006000000fa00fc
:100e5000113a8000f00b2000008160006004200047
:100e600071052000237420008049780081497800b2
:100e7000824978002135800000fe2f00008060004c
:100e80005000b300203588002136800000fe2f007e
:100e9000008060003000b30020368800103a8000e7
:100ea000000178000260a0006004200071052000ad
:100eb00023742000804978008149780082497800b5
:100ec0000080fa00000006000200fa00000f78001f
:100ed000f00320001e0060004280de0080007800e9
:100ee0004016800001007000401688001e00780047
:100ef000e30060000016800001007000001688000a
:100f00001e80ea0060198800501020002019880017
:100f10002223ef00000e28000019880051058000f0
:100f2000f0f82f00808060000006200001007000b3
:100f3000500588000080fa00000006000200fa0058
:100f4000000f78001e0078004019880085a0a900d5
:100f50002023a800000000002104800000002200df
:100f6000008060000000e000fbff320000188000fd
:080f70000080fa0000000600f9
:020000040000fa
:100f7800980900000c0000000200000006000600ae
:100f88000006000006000100003f0f00a409000051
:100f980004000000000000000008000098010000a4
:080fa800000000000000000041
:020000040000fa
:0200000401f009
:04000000ffff0000fe
:020000040000fa
:0200000401f009
:04000800ffff0000f6
:020000040000fa
:0200000401f009
:04000c0000000000f0
:020000040000fa
:0200000401f009
:0400100043000000a9
:020000040000fa
:0200000401f009
:040014005f00000089
:020000040000fa
:0200000401f009
:04001800f7000000ed
:020000040000fa
:0200000401f009
:04001c00dfff000002
:00000001FF
